:020000040800F2
:1000000000000120C5020008CD020008D10200084E
:1000100045030008490300089103000800000000A0
:10002000000000000000000000000000D9030008EC
:10003000DD03000800000000E1030008C509000816
:10004000F5030008F5030008F5030008F5030008B0
:10005000F5030008F5030008F5030008F5030008A0
:10006000F5030008F5030008F5030008F503000890
:10007000F5030008F5030008F5030008F503000880
:10008000F5030008F5030008F50300080000000070
:10009000000000000000000000000000F503000860
:1000A000F5030008F5030008F5030008F503000850
:1000B000F5030008F5030008F5030008F503000840
:1000C000F5030008F5030008F5030008F503000830
:1000D000F5030008F5030008F50300080000000020
:1000E000F5030008F5030008F50300080000000010
:1000F000000000000000000000000000F503000800
:1001000000000000F5030008F5030008F5030008EF
:1001100000000000000000000000000000000000DF
:10012000F5030008F5030008F5030008F5030008CF
:10013000F5030008000000000000000000000000BF
:10014000000000000000000000000000F5030008AF
:10015000F5030008F5030008F5030008F50300089F
:10016000F5030008F503000800000000000000008F
:10017000000000000000000000000000000000007F
:1001800000000000F503000800000000000000006F
:10019000F503000800B583B000F0BCF9384B394ACC
:1001A0001360394A136039490CE00A684B6801F161
:1001B0000C04886803E01168196004330432984223
:1001C000F9D82146324B9942EFD32E4B1A68314B66
:1001D0009A4204D12C4B1A682F4B9A4200D0FEE76A
:1001E000274B2E4A13602E4A13602E4B0AE0194605
:1001F00051F8082B5B6802E00020106004329A423C
:10020000FAD30B46284A9342F1D3244B1B6813B907
:10021000234B1B6803B1FEE700F088F9694601A88B
:1002200000F022F9214C224B1C1BA410002504E0F5
:100230001E4B53F8253098470135AC42F8DC1D4C75
:100240001D4B1C1BA410002504E01A4B53F825304D
:1002500098470135AC42F8DC0099019801F0B2F9F9
:100260000546164C164B1C1BA41004E0013C134B16
:1002700053F824309847002CF8DC284600F0D0F8DA
:10028000BABADECA00000020FC000020F803000813
:100290001004000878563412325476980001002079
:1002A0003402002010040008200400082004000884
:1002B000200400082004000820040008200400088E
:1002C0002004000808B5FFF765FF00BF00BEFEE789
:1002D0001EF0040F0CBFEFF30880EFF309807146A6
:1002E000414A10472DE9F04182B004468846134B3D
:1002F0005E6B9F6B9D6A1B6B13F0020F0DD00F4B53
:10030000DB6A002B09DA4BF6AB6100F08BF920B108
:100310004FF00042094BDA620CE0094800F0ACF8FB
:10032000CDF800803B4632462946204600F002F9CF
:1003300000BEFEE702B0BDE8F08100BF00ED00E0C6
:100340004420000800BEFEE71EF0040F0CBFEFF3D0
:100350000880EFF309807146244A10472DE9F041E7
:1003600082B004468846084B5E6B9F6B9D6A0748C7
:1003700000F082F8CDF800803B4632462946204600
:1003800000F0D8F800BEFEE700ED00E054200008C1
:100390001EF0040F0CBFEFF30880EFF309807146E5
:1003A000134A10472DE9F04182B004468846084BB5
:1003B0005E6B9F6B9D6A074800F05EF8CDF8008089
:1003C0003B4632462946204600F0B4F800BEFEE720
:1003D00000ED00E06020000800BEFEE700BEFEE782
:1003E00000BEFEE770470000E50200085D0300085C
:0803F000A503000800BEFEE7B2
:1003F800842100080000002000010020842100085A
:100408000000001000000010000100203802002049
:080418000000001000000010BC
:10042000FEE700BF08B50D4B1B6813B90C4A0B4B18
:100430001A600A4B1A68C31C23F0030313440949CA
:100440008B4206D901F0DEF80C2303604FF0FF3039
:1004500008BD02490B60104608BD00BF0401002022
:100460003802002000FC002001230360014B0B60D8
:10047000704700BF040000200FB400B583B004AB88
:1004800053F8042B01938021064801F0EDF8002871
:1004900003DD0146034800F039F803B05DF804EBD2
:1004A00004B070470C0100202DE9F04385B00446EC
:1004B0000F46435613BB042528462146ABBE0446CF
:1004C0001FE03546102E28BF1025002306E014F942
:1004D000011B04AA1A4402F8101C0133AB42F6D3E4
:1004E00004AA1344002203F8102CE9464FF0040834
:1004F00040464946ABBE8046761B00E00E46002EC5
:10050000DFD1384605B0BDE8F08300BF08B5FFF77E
:10051000CBFF08BD08B500F095F8024B024A9A607F
:1005200008BD00BF00ED00E00000000808B500F0C5
:10053000A9F808BDF8B504460D4617461E462648DC
:10054000FFF79AFF21682548FFF796FF6168244866
:10055000FFF792FFA1682348FFF78EFFE16822486A
:10056000FFF78AFF21692148FFF786FF616920486C
:10057000FFF782FFA1691F48FFF77EFFE1691E4870
:10058000FFF77AFF1D48FFF777FF29461C48FFF762
:1005900073FF1C4CE16A1C48FFF76EFF216B1B4880
:1005A000FFF76AFFE16B1A48FFF766FF15F0800F4F
:1005B00003D039461748FFF75FFF15F4004F03D00B
:1005C00031461548FFF758FF1448FFF755FF0699C5
:1005D0001348FFF751FFF8BD281F0008381F000817
:1005E000481F0008581F0008681F0008781F0008EF
:1005F000881F0008981F0008A81F0008B81F0008DF
:10060000C41F000800ED00E0D41F0008E41F00082C
:10061000F41F00080420000814200008242000080B
:100620002C20000883691A888A4207D10268033A9D
:10063000012A05D8023383610120704700207047EA
:10064000002070470C4B1A6842F001021A6000212A
:1006500099601A6822F0847222F480321A60074A84
:100660005A601A6822F480221A60D9604FF0006242
:10067000034B9A60704700BF0038024010300024DE
:1006800000ED00E0224B9B6803F00C03042B07D025
:10069000082B09D0002B2DD11E4A1F4B1A602CE0CD
:1006A0001E4A1D4B1A6028E0194B5A685B6803F01C
:1006B0003F0312F4800F09D0184AB2FBF3F2144B37
:1006C0005B68C3F3881303FB02F208E0114AB2FB34
:1006D000F3F30F4A5168C1F3881101FB03F20C4B8D
:1006E0005B68C3F3014301335B00B2FBF3F30A4AD7
:1006F000136002E0074A084B1A60054B9B68C3F37E
:100700000313074AD15C044A1368CB401360704757
:10071000003802400024F4000C00002040787D01E5
:100720007020000838B500252C4612E0104B53F815
:10073000340058B103EBC4035B680E4A1168B1FB87
:10074000F3F203FB121313B9804700E001250134D3
:10075000A4B2022C01D8002DE8D0064A1368013358
:10076000136013B90122034B1A60284638BD00BF3D
:1007700080200008100000200122014B1A707047F1
:100780008C01002008B500F0F1F8012000F0F8F825
:10079000014800F00DF908BD7907000808B500F020
:1007A000FFF8054B1B78012BFBD10022024B1A707E
:1007B000FFF7B8FFF5E700BF8C010020026990F950
:1007C0000030002B38DB43881B0A012B36D1F0B4F4
:1007D0008168C4680025002D08BF022C30D12B464B
:1007E00026E001259D400D4220D017685E000324BD
:1007F000B440E44327400178C1F34111B14039438B
:100800001160516821EA05050178C1F3C0019940E2
:100810000D435560D1680C40017801F00301B140EF
:100820002143D160847804FA06F696600133DBB286
:100830000F2BD6D9002004E001207047022070471A
:100840000320F0BC704700BF30B49DF808100025AD
:10085000002D08BF022B09D1012902D1826128464F
:1008600007E029B912048261002002E0032000E0C1
:10087000002030BC704700BF30B40025002D08BFF9
:10088000022B0BD10369134204D00123029A137087
:10089000284604E00020029B187000E0032030BCD2
:1008A000704700BF30B49DF80810713803284FD846
:1008B000DFE800F00215283B0025002D08BF082BBB
:1008C00048D1294B1B6B012903D123EA02031A43A8
:1008D00001E023EA0202244B1A63002041E00025D4
:1008E000002D08BF092B37D11F4B5B6B012903D1AA
:1008F00023EA02031A4301E023EA02021A4B5A6375
:1009000000202EE00025002D08BF0A2B26D1164B13
:100910001B6C012903D123EA02031A4301E023EAF5
:100920000202114B1A6400201BE00025002D08BFB5
:100930000B2B15D10C4B5B6C012903D123EA02036D
:100940001A4301E023EA0202074B5A64002008E040
:100950000B2006E00C2004E0002002E0002000E074
:10096000002030BC704700BF00380240034A1368C3
:1009700043F0060313600020704700BF10E000E062
:100980004FF47A5303FB00F00138B0F1807F03D2BB
:10099000024B5860002070470320704710E000E0D1
:1009A000024A136843F001031360704710E000E04F
:1009B00018B1034A1060002070470420704700BF40
:1009C0009001002008B5024B1B6803B1984708BD91
:1009D0009001002010B586B0002415E00E4B03EB0B
:1009E00004131A7B8DF80020D3E90001CDE9020140
:1009F0009B6804934FF48173ADF802306846FFF7AB
:100A0000DDFE28B90134E4B2072CE7D9002000E06C
:100A1000012006B010BD00BF98200008014B1878D7
:100A2000704700BF940100200022014B1A707047EC
:100A3000940100202DE9F04385B05A4B1B78012B1F
:100A40006CD167E03546584B03EB0613D3E90089B8
:100A500098680023009342464B46FFF7F5FE0424B6
:100A600045E0514B03EB0413D3E9008998680DF17D
:100A70000F03009342464B46FFF7FEFE231F4B4AEF
:100A800002EB8502D25C9DF80F108A4208D14849DA
:100A900003EB850051F82020013241F8202009E0C5
:100AA000AA00D7184FF0000E414840F827E03F4811
:100AB0000244D15403EB85023D4951F82220052A16
:100AC00013D19DF80F1061B93A4A02EB8502D05C50
:100AD000394A1070394A1470394A16700220314A66
:100AE0001070324A02EB8502D1540134A4B2072CB3
:100AF000B7D92C4B1B78022B09D02B4B03EB0515D8
:100B0000D5E90023A86801210091FFF79DFE013679
:100B1000F6B200E00026032E94D93FE0274C22785D
:100B2000214B03EB0213D3E9006798680DF10F0323
:100B3000009332463B46FFF79FFE2378043B1B4A57
:100B4000D15C9DF80F20914206D1194951F823201C
:100B5000013241F8232005E00020154941F8230027
:100B60001249CA54154B1B78043B114A52F82330E2
:100B7000052B13D19DF80F30012B0FD10121094B0B
:100B800019700F4B1A78084B03EB0213D3E9004599
:100B90009868009122462B46FFF756FE05B0BDE847
:100BA000F08300BF14000020982000089801002066
:100BB000AC0100201821000894010020A8010020A9
:100BC00095010020044B1B7823B90122024B1A70B7
:100BD0000020704701207047ED010020054B1B7875
:100BE00033B90322034B1A70034B1870002070476F
:100BF00001207047ED01002004020020F0B583B011
:100C00005F4B1B78012B5AD15E4B1B78C3B95E4CEE
:100C100000250095D4E90623206AFFF715FE00950C
:100C2000D4E902232069FFF70FFED4E90A23206BE1
:100C300001240094FFF708FE524B1C7020469DE0F3
:100C4000012B2BD1504C514D2B78C3F30013009343
:100C5000D4E90E23206CFFF7F7FD2B78C3F3401384
:100C60000093D4E91223206DFFF7EEFD2B78C3F338
:100C700080130093D4E91623206EFFF7E5FDD4E935
:100C80001A67206F2B78DB09009332463B46FFF74B
:100C9000DBFD00223A4B1A7001206FE0022B68D175
:100CA000394BD3E90A67186B0124009432463B465E
:100CB000FFF7CAFD0022324B1A7020465EE0002B7F
:100CC00059D1304B1B78012B10D12F4BD3E90A455A
:100CD000186B0023009322462B46FFF7B5FD022236
:100CE000284B1A700120264B187047E0022B2ED19A
:100CF000254C264D2B7803F001030093D4E90E23F5
:100D0000206CFFF7A1FD2B78C3F340030093D4E9D7
:100D10001223206DFFF798FD2B78C3F38003009317
:100D2000D4E91623206EFFF78FFDD4E91A67206FF0
:100D30002B78C3F3C003009332463B46FFF784FD94
:100D400000230F4A13700F4A1370012016E0A3B955
:100D50000D4BD3E90A67186B0024009432463B46DA
:100D6000FFF772FD0122064B1A70064B1C702046DD
:100D700004E0012002E0012000E0012003B0F0BD0A
:100D80001D000020EF0100202000002004020020B0
:100D9000F0B583B05F4B1B78012B59D15E4B1B78AC
:100DA000BBB95E4D0093D5E90623286AFFF74CFDD9
:100DB00001240094D5E902232869FFF745FDD5E910
:100DC0000A23286B0094FFF73FFD534B1C7020460D
:100DD0009DE0012B2BD1514C514D2B78C3F30013C7
:100DE0000093D4E90E23206CFFF72EFD2B78C3F37C
:100DF00040130093D4E91223206DFFF725FD2B78D3
:100E0000C3F380130093D4E91623206EFFF71CFD73
:100E1000D4E91A67206F2B78DB09009332463B46F2
:100E2000FFF712FD00223B4B1A7001206FE0022BEE
:100E300068D13A4BD3E90A67186B01240094324613
:100E40003B46FFF701FD0022324B1A7020465EE060
:100E5000002B59D1304B1B78012B10D12F4BD3E9EC
:100E60000A45186B0023009322462B46FFF7ECFC43
:100E70000222294B1A700120264B187047E0022BE2
:100E80002ED1264C264D2B7803F001030093D4E994
:100E90000E23206CFFF7D8FC2B78C3F3400300939C
:100EA000D4E91223206DFFF7CFFC2B78C3F3800326
:100EB0000093D4E91623206EFFF7C6FCD4E91A6725
:100EC000206F2B78C3F3C003009332463B46FFF7F5
:100ED000BBFC00230F4A13700F4A1370012016E069
:100EE000A3B90E4BD3E90A67186B0024009432466D
:100EF0003B46FFF7A9FC0122064B1A70064B1C70FB
:100F0000204604E0012002E0012000E0012003B0BF
:100F1000F0BD00BF1C000020F001002020000020D8
:100F20000402002010B5104B1B68012B13D0FFF7F3
:100F30002FFFA8B90C4A10680C4BA3FB0013DB0869
:100F40001C4603EB83035900431A303308490B70E6
:100F50001460012010BDFFF71BFF18B1012010BD68
:100F6000012010BD002010BD18000020CDCCCCCC3D
:100F70000402002008B5174B1879174B1B789842CC
:100F800022D993B90022144B1A7007E0114A126853
:100F9000D156124AD15401330F4A13700E4B1B78AD
:100FA0009842F3D800220C4B1A700B4B1B780B4A5B
:100FB000D25C0B4B1A70FFF7EBFE48B9064A137868
:100FC00001331370012008BD0020034B187008BDC9
:100FD000012008BD08020020EE010020F4010020DD
:100FE00004020020174B1B789BB101207047164963
:100FF0000A6802EB82025400144AA2FB0032D308B2
:101000001D4603EB83035A00831A23440B602846D2
:1010100000E030B40028EAD10B4A10680B4BA3FB68
:101020000013DB081C4603EB83035900431A3033DB
:1010300007490B7014600422024B1A70002030BC68
:10104000704700BFED01002018000020CDCCCCCCB3
:10105000040200200B4B1B7893B9052802D0062808
:1010600003D005E041F0800103E041F0C00100E061
:1010700000210522034B1A70034B197000207047A2
:1010800001207047ED01002004020020064B1B7870
:101090003BB90122054B1A700522034B1A70002040
:1010A00070470120704700BFED01002004020020BE
:1010B00068B102686AB10949097861B90179084BD8
:1010C00019711A600222054B1A7000207047012026
:1010D0007047012070470020704700BFED010020DD
:1010E0000802002030B587B0434B1B78062B74D81C
:1010F000DFE803F0042D3E4B57616D0000223F4BAB
:101100001A7019E03E495A1C1201881800798DF8AE
:10111000000001EB0313D3E90245CDE902458B58EA
:1011200004934FF48173ADF802306846FFF746FB35
:10113000324A137801331370304B1B78062BE1D9F8
:1011400000222E4B1A7001202B4B187052E02B4AB4
:1011500013780133DBB21370322B40D10223264ABD
:101160001370284A13700022244B1A70012041E0AA
:10117000FFF744FD002834D1214B1A78214B1A7017
:1011800003221D4B1A70012034E0FFF737FD50BBDE
:101190001B4B5A781B4B1A700422174B1A700120F4
:1011A00028E0FFF72BFD00BB0523164A1370124AF7
:1011B000137001201EE0FFF721FDC0B9104B9A7893
:1011C000104B1A7006220C4B1A70012012E0FFF728
:1011D00015FD70B9084B18700CE001200AE00120E1
:1011E00008E0012006E0012004E0012002E00120E7
:1011F00000E0012007B030BDF1010020EC0100202B
:10120000200000200402002008B5204B1B78012B91
:1012100008D11F4A1278012A04D1FFF763FF1C4B43
:10122000187008BD032B08D1194A1278012A04D17D
:10123000FFF7AEFD164B187008BD042B08D1144AF9
:101240001278012A04D1FFF76DFE114B187008BD0A
:10125000022B08D10E4A1278012A04D1FFF78AFE28
:101260000B4B187008BD052B08D1094B1B78012BBF
:1012700004D1FFF7C3FC064B187008BD0122044BD4
:101280001A700022014B1A7008BD00BFED0100204A
:101290001E00002008B52C4B1B78062B4ED8DFE82B
:1012A00003F0041219222E374300284A1378013321
:1012B000DBB21370022B43D10120234B18700022A4
:1012C000224B1A7008BDFFF7E1FE02221E4B1A7076
:1012D000012008BD05210846FFF7BCFE03221A4B7A
:1012E0001A70012008BD1A481A4B036007230371C6
:1012F000FFF7DEFE0422144B1A70012008BD002106
:101300000620FFF7A7FE05220F4B1A70012008BD2B
:101310000F48114B036010230371FFF7C9FE06222B
:10132000094B1A70012008BD084A13780133DBB25B
:1013300013700A2B06D10020107008BD012008BDD3
:10134000012008BD012008BD160200201002002067
:101350002C020020282100083021000808B5484B45
:101360001B78032B00F28780DFE803F002081D578B
:10137000FFF78CFE0120424B187008BDFFF74EFBB3
:1013800000287AD03F4A1070FFF74EFB3E4B1B7887
:1013900023B902223A4B1A70012008BD0322384BB0
:1013A0001A70012008BD374B18782B2805D02D283E
:1013B00003D02A2801D02F2813D1344B1B8823B9FE
:1013C00004222F4B1A70012008BDFFF707FC2D4B9C
:1013D00019782D4A117000221A700120284B1870BC
:1013E00008BDA0F13003DBB2092B11D8FFF7F6FBE3
:1013F00026490A8802EB82025000224A13780344ED
:10140000303B0B800023137001201D4B187008BD6A
:1014100004221B4B1A70012008BD1A4B18783D2876
:101420000DD11B4B1B8823B90422154B1A700120C8
:1014300008BDFFF7D3FB0020114B187008BDA0F1C9
:101440003003DBB2092B11D8FFF7C8FB10490A881B
:1014500002EB820250000B4A13780344303B0B80AE
:10146000002313700120064B187008BD0422044BA2
:101470001A70012008BD012008BD012008BD00BF71
:10148000130200201A020020110200201C0200207A
:101490001802002010B5344B1B78032B5DD8DFE811
:1014A00003F002353E4A314B1B782A3B052B25D8E9
:1014B000DFE803F01303240B241C2D4B1A882D4B5B
:1014C0001B8813442C4A138018E0294B1B88294A97
:1014D00012889B1A284A138010E0254B1A88254B46
:1014E0001B8812FB03F3244A138007E0204B1B8860
:1014F000204A1288B3FBF2F31F4A13801E4B188850
:10150000FFF770FD0120184B187010BD0021062058
:10151000FFF7A0FD0222144B1A70012010BD1748DE
:10152000174B036007230371FFF7C2FD03220E4B25
:101530001A70012010BDFFF771FA0446FFF774FA24
:101540006CB1632C0DD10020094B1880094B188019
:10155000064B1870044B187010BD012010BD0120FF
:1015600010BD012010BD00BF12020020110200209A
:101570001C02002018020020140200202C0200206F
:101580004421000808B50E4B1B7833B9FFF782FEE3
:10159000A0B901220A4B1A7008BD012B06D1FFF732
:1015A000DDFE58B90222064B1A7008BD022B05D188
:1015B000FFF770FF10B90122014B1A7008BD00BF80
:1015C0001E02002010B582B00124009401220823DD
:1015D0007120FFF767F90094022208237120FFF7BA
:1015E00061F90094042208237120FFF75BF9FFF7EB
:1015F000E9FAFFF7EFF9FFF7C5F8FFF7CFF800209A
:1016000002B010BD014B1868704700BFF800002001
:1016100030B5141E05469BB0184604DA8B232B60A8
:101620004FF0FF301DE04FF40273ADF80C3014BFE3
:1016300004F1FF332346029305934FF6FF730091A5
:101640000491ADF80E3002461E9B6946284600F014
:1016500073F8431CBCBF8B232B6014B1009B00228A
:101660001A701BB030BD000007B5009313460A4640
:10167000014603480068FFF7CBFF03B05DF804FBA9
:10168000F80000202DE9F0478E689E4282460C4605
:10169000914698463ED88A8912F4906F3AD02568D0
:1016A00009696F1A6569022305EB450595FBF3F59A
:1016B0007B1C43449D4238BF1D4653050FD5294628
:1016C00000F092FB064698B13A46216900F018FBFB
:1016D000A38923F4906343F08003A38113E02A4697
:1016E00000F0E0FB064670B92169504600F02EFB81
:1016F0000C23CAF80030A38943F04003A3814FF0C4
:10170000FF30BDE8F087266165613E44ED1B266031
:10171000A5604646464528BF4646324649462068AB
:1017200000F0F9FAA3689B1BA36023681E4426609F
:101730000020BDE8F08700002DE9F04F9DB0804605
:1017400003938B891C060D4616460DD50B695BB9B4
:10175000402100F049FB2860286118B90C23C8F823
:101760000030CDE040236B610023099320238DF8E6
:101770002930DFF89CB130238DF82A3037463C46BB
:1017800014F8013B1BB9B7EB060910D003E0252B79
:10179000F9D02746F3E74B46324629464046FFF745
:1017A00071FF013000F0A780099B4B4409933B78FF
:1017B000002B00F0A08000234FF0FF32049307932A
:1017C000059206938DF853301A930126052221784D
:1017D0004E4800F045FA671C049B38B14B4A801A0A
:1017E00006FA00F0184304903C46EFE7D90644BFE0
:1017F00020228DF853201A0744BF2B228DF8532046
:1018000022782A2A03D0079A00210A200BE0039AA3
:10181000111D12680391002A10DA524243F00200AF
:10182000079204900BE0274601343B78303B092BAC
:1018300003D800FB02320121F5E701B107923B78A2
:101840002E2B1ED17B782A2B0AD1039B1A1D1B68D5
:101850000392002BB8BF4FF0FF330237059310E01F
:1018600000230593781C19460A24074601303A786C
:10187000303A092A03D804FB01210123F5E703B11B
:10188000059103223978224800F0EAF940B140235B
:10189000CBEB000003FA00F0049B184304900137DF
:1018A00039781C488DF8281006227E1C00F0D8F9E3
:1018B00088B1194B33B9039B073323F0070308336F
:1018C000039314E003AB00932A46144B04A940464B
:1018D000AFF3008007E003AB00932A460F4B04A947
:1018E000404600F093F8B0F1FF3F824603D0099BD9
:1018F0005344099342E7AB895B0601D4099801E0A0
:101900004FF0FF301DB0BDE8F08F00BF5021000840
:10191000562100085A210008000000008516000822
:101920002DE9F04791461F460A698B68DDF8208053
:101930009342B8BF1346C9F8003091F843200646D9
:101940000C4612B10133C9F800302368990642BF32
:10195000D9F800300233C9F80030256815F00605C3
:1019600010D104F1190A07E00123524639463046E6
:10197000C04701301AD00135E368D9F800209B1A1E
:101980009D42F1DB94F843302268003318BF0123F5
:1019900092060FD5E1185A1C302081F843002244EA
:1019A00094F8451082F84310023303E04FF0FF3003
:1019B000BDE8F08704F1430239463046C0470130A4
:1019C000F4D02268D9F80050E36802F00602042A35
:1019D00008BF5D1B2269A3680CBF25EAE5750025D9
:1019E0009342C4BF9B1AED184FF000091A344D45BD
:1019F00009D00123224639463046C0470130D5D0B0
:101A000009F10109F3E70020BDE8F0872DE9F04373
:101A100017460A7E85B06E2A984606460C460C9BF1
:101A200001F1430E00F0AE8011D8632A22D009D80C
:101A3000002A00F0BB80582A40F0CA8081F8452077
:101A4000834955E0642A1ED0692A1CD0C0E0732A5D
:101A500000F0B08009D86F2A2ED0702A40F0B880EC
:101A60000A6842F020020A603EE0752A24D0782AF3
:101A70003AD0ADE01A6801F14205111D19601368F2
:101A800084F84230A8E021681A6811F0800F02D073
:101A9000111D196008E011F0400F02F104011960F6
:101AA00002D0B2F9003000E01368002B3CDA2D229E
:101AB0005B4284F8432037E021681A6811F0800FF8
:101AC00002D0111D196007E011F0400F02F104016E
:101AD000196001D0138800E01368227E5C496F2AE8
:101AE00014BF0A2208221BE078225A4984F84520B4
:101AF0002268186812F0800F00F104051D6003D100
:101B0000550601D5038800E00368D00744BF42F0C2
:101B1000200222601BB9226822F0200222601022DB
:101B2000002084F8430001E049490A226568A56065
:101B3000002D08DB206820F0040020602BB9002D68
:101B40007DD175460CE0002B79D07546B3FBF2F0E1
:101B500002FB1033CB5C05F8013D03460028F5D1AC
:101B6000082A0BD12368DA0708D5236962689A42EC
:101B7000DEBF302305F8013C05F1FF35C5EB0E0350
:101B800023612EE008681A68496910F0800F03D0BD
:101B9000101D1860136808E010F0400F02F10400F7
:101BA0001860136801D0198000E0196000232361D8
:101BB000754616E01A68111D1960156862680021E3
:101BC000284600F04DF808B1401B6060636804E0EF
:101BD00004F1420584F8422001232361002384F8A4
:101BE0004330CDF800803B4603AA21463046FFF73C
:101BF00097FE013002D14FF0FF3026E023692A46DC
:101C000039463046C0470130F5D023689B0710D5D0
:101C1000002504F1190907E001234A4639463046F8
:101C2000C0470130E7D00135E368039A9B1A9D4213
:101C3000F2DBE068039B9842B8BF184605E00B78DA
:101C400084F8423004F142058AE705B0BDE8F0832C
:101C5000612100087221000800000000000000005F
:101C600001F0FF01102A2BDB10F0070F08D010F84D
:101C7000013B013A8B422DD010F0070F42B3F6D151
:101C8000F0B441EA012141EA014122F007047FF06A
:101C900000070023F0E80256083C85EA010586EAC1
:101CA000010685FA47F5A3FA87F586FA47F6A5FAFD
:101CB00087F68EB9EED1F0BC01F0FF0102F0070209
:101CC00032B110F8013B013A83EA010313B1F8D1B4
:101CD0000020704701387047002D06BF3546033895
:101CE000073815F0010F07D1013015F4807F02BFCE
:101CF000013015F4C03F0130F0BC0138704700BF1F
:101D000010B5431E0A44914204D011F8014B03F868
:101D1000014FF8E710BD884210B501EB020301D86E
:101D2000421E0BE09842FBD28118D21AD34204D053
:101D300013F8014D01F8014DF8E710BD994204D0A8
:101D400011F8014B02F8014FF8E710BD38B5054610
:101D5000002946D051F8043C0C1F002BB8BFE418F2
:101D600000F0D6F81F4A1368114613B96360146077
:101D700032E0A3420ED92268A018834204BF18683B
:101D80005B68636004BF121822600C6024E0A2420A
:101D900003D813465A68002AF9D118681918A142C5
:101DA0000BD12168014458188242196014D110687F
:101DB00052685A60014419600EE002D90C232B606E
:101DC0000AE021686018824204BF106852686260AD
:101DD00004BF091821605C602846BDE8384000F067
:101DE00098B838BD2402002070B5CD1C25F003053D
:101DF00008350C2D38BF0C25002D064601DBA94205
:101E000002D90C23336046E000F082F8234B1C68B3
:101E10001A462146A1B10B685B1B0ED40B2B03D9CC
:101E20000B60CC18CD501EE08C420DBF63684B6830
:101E30006360136018BF0C4615E00C464968E9E77B
:101E4000174C23681BB9304600F052F82060294631
:101E5000304600F04DF8431C18D0C41C24F0030495
:101E6000A0420DD12560304600F053F804F10B007C
:101E7000231D20F00700C31A0ED05A42E25070BD55
:101E8000211A304600F034F80130EBD10C233360D6
:101E9000304600F03EF8002070BD00BF2402002054
:101EA00020020020F8B5074615460E4621B9114616
:101EB000BDE8F840FFF798BF1AB9FFF747FF28467B
:101EC000F8BD00F027F885420ED929463846FFF7BD
:101ED0008BFF044650B131462A46FFF711FF3146C9
:101EE0003846FFF733FF01E03046F8BD2046F8BD25
:101EF00038B5064C0023054608462360FEF792FAE3
:101F0000431C02D1236803B12B6038BD2802002096
:101F10007047704751F8040C0028BEBF091851F8EB
:101F2000043CC01804387047537461636B206672B8
:101F3000616D653A0A000000205230203D202025C6
:101F40003038580A00000000205231203D20202562
:101F50003038580A00000000205232203D20202551
:101F60003038580A00000000205233203D20202540
:101F70003038580A0000000020523132203D202520
:101F80003038580A00000000204C52203D20202507
:101F90003038580A00000000205043203D20202502
:101FA0003038580A0000000020505352203D2025B0
:101FB0003038580A000000004653522F4641523A2A
:101FC0000A0000002043465352203D20202530388F
:101FD000580A00002048465352203D202025303822
:101FE000580A00002044465352203D202025303816
:101FF000580A00002041465352203D202025303809
:10200000580A0000204D4D464152203D20253038D1
:10201000580A00002042464152203D2020253038F9
:10202000580A00004D6973630A000000204C522FCB
:102030004558435F52455455524E3D20253038583F
:102040000A0000005B486172644661756C745D0A49
:10205000000000005B4275734661756C745D0A0098
:102060005B55736167654661756C745D0A000000BD
:102070000000000000000000010203040607080938
:10208000350A0008050000000912000801000000E0
:1020900085150008320000000080000002000000EA
:1020A00000000240210000000800000002000000C3
:1020B00000040240210000001000000002000000A7
:1020C0000004024021000000200000000200000087
:1020D0000004024021000000400000000200000057
:1020E0000004024001000000800000000200000027
:1020F0000004024001000000000100000200000096
:102100000004024001000000000200000200000084
:1021100000040240010000003132332F3435362AEA
:102120003738392D63303D2B57656C636F6D650013
:10213000536F6C6C792043616C63756C61746F7262
:1021400000000000707265737320632000000000BF
:10215000232D302B2000686C4C0065666745464790
:102160000030313233343536373839414243444513
:102170004600303132333435363738396162636482
:0321800065660091
:102184007856341208010020000000000024F400F6
:102194000100000001FFFFFF01000000010101FF39
:1021A400280C0600000000000100000002000000EE
:1021B40000000240200000000200000002000000B5
:1021C40000000240200000000400000002000000A3
:1021D400000002402000000008000000020000008F
:1021E4000000024020000000100000000200000077
:1021F4000000024020000000200000000200000057
:102204000000024020000000400000000200000026
:102214000000024020000000000000000000000058
:1022240000000000000000000000000000000000AA
:10223400000000000000000000000000000000009A
:10224400000000000000000000000000000000008A
:10225400000000000000000000000000000000007A
:10226400000000000000000000000000000000006A
:10227400000000000000000098000020325476980E
:040000050800019559
:00000001FF
